:020000040800F2
:1000000000280020FD1200088D120008931200083D
:10001000991200089F120008A512000800000000B5
:10002000000000000000000000000000AB1200080B
:10003000B712000800000000C3120008CF12000829
:100040004513000845130008451300084513000830
:100050004513000845130008451300084513000820
:100060004513000845130008451300084513000810
:100070004513000845130008451300084513000800
:1000800045130008451300084513000845130008F0
:1000900045130008451300084513000845130008E0
:1000A00045130008451300084513000845130008D0
:1000B000DD12000845130008000000004513000889
:1000C0004513000800000000000000004513000870
:1000D0000000000045130008451300080000000060
:1000E00045130008451300084513000800000000F0
:1000F0000000000000000000000000000000000000
:0C01000000000000000000005FF808F1A3
:1001100010B5054C237833B9044B13B10448AFF341
:1001200000800123237010BD3C000020000000006F
:100130009C29000808B5034B1BB103490348AFF3E2
:10014000008008BD00000000400000209C2900083D
:1001500081F0004102E000BF83F0004330B54FEA78
:1001600041044FEA430594EA050F08BF90EA020FE5
:100170001FBF54EA000C55EA020C7FEA645C7FEA78
:10018000655C00F0E2804FEA5454D4EB5555B8BF9B
:100190006D420CDD2C4480EA020281EA030382EA0C
:1001A000000083EA010180EA020281EA0303362D9E
:1001B00088BF30BD11F0004F4FEA01314FF4801C71
:1001C0004CEA113102D0404261EB410113F0004F83
:1001D0004FEA03334CEA133302D0524263EB43033A
:1001E00094EA050F00F0A780A4F10104D5F1200ED8
:1001F0000DDB02FA0EFC22FA05F2801841F1000133
:1002000003FA0EF2801843FA05F359410EE0A5F106
:1002100020050EF1200E012A03FA0EFC28BF4CF037
:10022000020C43FA05F3C01851EBE37101F00045ED
:1002300007D54FF0000EDCF1000C7EEB00006EEBFA
:100240000101B1F5801F1BD3B1F5001F0CD3490884
:100250005FEA30004FEA3C0C04F101044FEA4452DB
:1002600012F5800F80F09A80BCF1004F08BF5FEA62
:10027000500C50F1000041EB045141EA050130BD42
:100280005FEA4C0C404141EB0101013C28BFB1F554
:10029000801FE9D291F0000F04BF01460020B1FA9F
:1002A00081F308BF2033A3F10B03B3F120020CDA72
:1002B0000C3208DD02F1140CC2F10C0201FA0CF050
:1002C00021FA02F10CE002F11402D8BFC2F1200CB5
:1002D00001FA02F120FA0CFCDCBF41EA0C0190406B
:1002E000E41AA2BF01EB0451294330BD6FEA0404B4
:1002F0001F3C1CDA0C340EDC04F11404C4F120029F
:1003000020FA04F001FA02F340EA030021FA04F3B0
:1003100045EA030130BDC4F10C04C4F1200220FA07
:1003200002F001FA04F340EA0300294630BD21FA45
:1003300004F0294630BD94F0000F83F4801306BF0B
:1003400081F480110134013D4EE77FEA645C18BFFF
:100350007FEA655C29D094EA050F08BF90EA020F96
:1003600005D054EA000C04BF1946104630BD91EA8E
:10037000030F1EBF0021002030BD5FEA545C05D191
:100380004000494128BF41F0004130BD14F58004D0
:100390003CBF01F5801130BD01F0004545F0FE4144
:1003A00041F470014FF0000030BD7FEA645C1ABF79
:1003B000194610467FEA655C1CBF0B46024650EAB0
:1003C000013406BF52EA033591EA030F41F40021DC
:1003D00030BD00BF90F0000F04BF0021704730B562
:1003E0004FF4806404F132044FF000054FF0000137
:1003F00050E700BF90F0000F04BF0021704730B5F8
:100400004FF4806404F1320410F0004548BF4042CC
:100410004FF000013EE700BF42004FEAE2014FEA21
:1004200031014FEA02701FBF12F07F4393F07F4FFC
:1004300081F06051704732F07F4208BF704793F0FF
:100440007F4F04BF41F40021704730B54FF4607412
:1004500001F0004521F000411CE700BF50EA010215
:1004600008BF704730B54FF000050AE050EA0102BE
:1004700008BF704730B511F0004502D5404261EB2E
:1004800041014FF4806404F132045FEA915C3FF46F
:10049000D8AE4FF003025FEADC0C18BF03325FEA0C
:1004A000DC0C18BF033202EBDC02C2F1200300FABD
:1004B00003FC20FA02F001FA03FE40EA0E0021FAE2
:1004C00002F11444BDE600BF70B54FF0FF0C4CF4D0
:1004D000E06C1CEA11541DBF1CEA135594EA0C0F82
:1004E00095EA0C0F00F0DEF82C4481EA030621EABD
:1004F0004C5123EA4C5350EA013518BF52EA0335F8
:1005000041F4801143F4801338D0A0FB02CE4FF0A9
:100510000005E1FB02E506F00042E0FB03E54FF0D9
:100520000006E1FB03569CF0000F18BF4EF0010ED1
:10053000A4F1FF04B6F5007F64F5407404D25FEACD
:100540004E0E6D4146EB060642EAC62141EA555180
:100550004FEAC52040EA5E504FEACE2EB4F1FD0CC2
:1005600088BFBCF5E06F1ED8BEF1004F08BF5FEA40
:10057000500E50F1000041EB045170BD06F00046F2
:1005800046EA010140EA020081EA0301B4EB5C049F
:10059000C2BFD4EB0C0541EA045170BD41F4801197
:1005A0004FF0000E013C00F3AB8014F1360FDEBFBC
:1005B000002001F0004170BDC4F10004203C35DA98
:1005C0000C341BDC04F11404C4F1200500FA05F31B
:1005D00020FA04F001FA05F240EA020001F00042BC
:1005E00021F0004110EBD37021FA04F642EB060132
:1005F0005EEA430E08BF20EAD37070BDC4F10C045C
:10060000C4F1200500FA04F320FA05F001FA04F21F
:1006100040EA020001F0004110EBD37041F100010B
:100620005EEA430E08BF20EAD37070BDC4F1200516
:1006300000FA05F24EEA020E20FA04F301FA05F27E
:1006400043EA020321FA04F001F0004121FA04F226
:1006500020EA020000EBD3705EEA430E08BF20EAF6
:10066000D37070BD94F0000F0FD101F00046400030
:1006700041EB010111F4801F08BF013CF7D041EAB2
:10068000060195F0000F18BF704703F000465200B6
:1006900043EB030313F4801F08BF013DF7D043EA87
:1006A0000603704794EA0C0F0CEA135518BF95EA3D
:1006B0000C0F0CD050EA410618BF52EA4306D1D1C4
:1006C00081EA030101F000414FF0000070BD50EAE3
:1006D000410606BF1046194652EA430619D094EA6D
:1006E0000C0F02D150EA013613D195EA0C0F05D157
:1006F00052EA03361CBF104619460AD181EA0301AB
:1007000001F0004141F0FE4141F470014FF0000062
:1007100070BD41F0FE4141F4780170BD70B54FF0FD
:10072000FF0C4CF4E06C1CEA11541DBF1CEA13557D
:1007300094EA0C0F95EA0C0F00F0A7F8A4EB05045F
:1007400081EA030E52EA03354FEA013100F0888056
:100750004FEA03334FF0805545EA131343EA12631F
:100760004FEA022245EA111545EA10654FEA0026D4
:100770000EF000419D4208BF964244F1FD0404F58D
:10078000407402D25B084FEA3202B61A65EB0305E9
:100790005B084FEA32024FF480104FF4002CB6EBA6
:1007A000020E75EB030E22BFB61A754640EA0C0026
:1007B0005B084FEA3202B6EB020E75EB030E22BF66
:1007C000B61A754640EA5C005B084FEA3202B6EBA7
:1007D000020E75EB030E22BFB61A754640EA9C0066
:1007E0005B084FEA3202B6EB020E75EB030E22BF36
:1007F000B61A754640EADC0055EA060E18D04FEAF4
:10080000051545EA16754FEA06164FEAC30343EA93
:1008100052734FEAC2025FEA1C1CC0D111F4801F60
:100820000BD141EA00014FF000004FF0004CB6E759
:1008300011F4801F04BF01430020B4F1FD0C88BFF8
:10084000BCF5E06F3FF6AFAEB5EB030C04BFB6EB03
:10085000020C5FEA500C50F1000041EB045170BDF6
:100860000EF0004E4EEA113114EB5C04C2BFD4EB23
:100870000C0541EA045170BD41F480114FF0000EA7
:10088000013C90E645EA060E8DE60CEA135594EA23
:100890000C0F08BF95EA0C0F3FF43BAF94EA0C0F26
:1008A0000AD150EA01347FF434AF95EA0C0F7FF49B
:1008B00025AF104619462CE795EA0C0F06D152EAEF
:1008C00003353FF4FDAE1046194622E750EA4106D3
:1008D00018BF52EA43067FF4C5AE50EA41047FF4E4
:1008E0000DAF52EA43057FF4EBAE12E74FEA410247
:1008F00012F5001215D211D56FF47873B3EB625272
:1009000012D94FEAC12343F0004343EA505311F098
:10091000004F23FA02F018BF404270474FF000002A
:10092000704750EA013005D111F0004008BF6FF068
:10093000004070474FF00000704700BF80B483B0A4
:1009400000AF7860094A7B6852F82330012B06D14A
:10095000064A7B68002142F82310012300E00023AF
:1009600018460C37BD4680BC704700BF58000020B9
:1009700080B483B000AF7860044A7B68012142F8FC
:10098000231000BF0C37BD4680BC704758000020C4
:1009900080B582B000AF00237B608CE04A4A7B6860
:1009A00052F8232049497B6841F82320484A7B6854
:1009B00052F8232044497B6841F823207B68002BB0
:1009C0000AD14FF40051434800F0A8FF03461946EE
:1009D0003F4A7B6842F823103B4A7B6852F8232049
:1009E0003A497B6851F823309A425AD1364A7B689B
:1009F00052F8232036497B6851F823309A4250D16F
:100A0000354A7B6852F8232031497B6851F82330FE
:100A10009A422CD02E4A7B6852F823202E497B68BC
:100A200041F823202A4A7B6852F82330002B3ED11C
:100A30007868FFF79DFF294A7B6852F82330002B26
:100A40000AD1274B1B684FF4FA6292FBF3F2254957
:100A50007B6841F823202AE0214B1B684FF47A720F
:100A600092FBF3F21F497B6841F823201FE01D4AE7
:100A70007B6852F823305A1E1A497B6841F82320BC
:100A8000184A7B6852F82330002B10D1124A7B6839
:100A9000012142F82310114A7B68012142F82310FA
:100AA00005E00E4A7B68002142F8231000E000BFF9
:100AB0007B6801337B607B68022B7FF76FAF00BFE1
:100AC00000BF0837BD4680BD0C000020000000209C
:100AD00018000020000801402400002064000020CD
:100AE000E80300207000002080B500AF20210248FC
:100AF00000F043FF00BF80BD0008014080B500AF9B
:100B00004021024800F039FF00BF80BD00080140CD
:100B100080B500AF8021024800F02FFF00BF80BDEC
:100B20000008014080B500AF4FF48071024800F02A
:100B300024FF00BF80BD00BF0008014080B500AFAA
:100B40004FF40071024800F018FF00BF80BD00BFE5
:100B50000008014080B500AF4FF48061024800F00A
:100B60000CFF00BF80BD00BF0008014080B500AF92
:100B70000020FFF7E3FE0346002B04D04FF4006192
:100B8000024800F0FAFE00BF80BD00BF000801402F
:100B900080B500AF00F0D8FB00F050F800F018F975
:100BA00000F08AF81C4801F039FB00F0E5F94FF439
:100BB000FA724FF4FA71194800F0EEF94FF47A72B4
:100BC0004FF47A71164800F0E7F940F2DC5240F237
:100BD000DC51144800F0E0F94FF4FA624FF4FA6186
:100BE000114800F0D9F940F6C41240F6C4110F487C
:100BF00000F0D2F900224FF4FA610D4800F0CCF970
:100C00000C4B1B6819460B4B1B681A460A4800F030
:100C1000C3F900F091FAFCE780000020E90A00081F
:100C2000FD0A0008110B0008250B00083D0B000809
:100C3000550B0008E80300206D0B000880B590B04C
:100C400000AF07F1180328220021184601F09EFE8C
:100C50003B1D00221A605A609A60DA601A61022312
:100C6000BB610123BB621023FB6200237B6307F19E
:100C70001803184600F09AFE0346002B01D000F03E
:100C8000F3F80F237B600023BB600023FB6000238D
:100C90003B6100237B613B1D0021184601F006F9F2
:100CA0000346002B01D000F0DFF800BF4037BD46FF
:100CB00080BD000000000000B0B586B000AF07F1B5
:100CC000080300221A605A609A60DA603B460022EC
:100CD0001A605A603A4B4FF080421A60384B41F626
:100CE0003F725A60364B00229A60354B0922DA6017
:100CF000334B00221A61324B00229A61304801F0D6
:100D00003DFA0346002B01D000F0AEF84FF48053BB
:100D1000BB6007F108031946294801F0D3FB0346DD
:100D2000002B01D000F0A0F800233B6000237B6083
:100D30003B461946224801F09BFD0346002B01D09B
:100D400000F092F81E4B5B6801331846FFF742FB38
:100D500002460B4618A1D1E90001FFF7DFFC02466D
:100D60000B4614461D46164BDB6801331846FFF749
:100D700031FB02460B4620462946FFF7CFFC0246D0
:100D80000B464FF000000F49FFF7C8FC02460B4628
:100D9000104619464FF000020B4BFFF795FB024639
:100DA0000B4610461946FFF7A1FD0346074A13609C
:100DB00000BF1837BD46B0BD0000000080845E4112
:100DC000800000200000F03F00408F40E80300203A
:100DD00080B586B000AF07F1080300221A605A60A0
:100DE0009A60DA60184B9B69174A43F004039361D9
:100DF000154B9B6903F004037B607B6800224FF472
:100E00007E61124800F0A1FD4FF47E63BB600123B8
:100E1000FB6000233B6102237B6107F10803194655
:100E20000A4800F001FC4FF40053BB600023FB6054
:100E300001233B6107F108031946044800F0F4FB65
:100E400000BF1837BD4680BD0010024000080140B9
:100E500080B582B000AF786000F00EF9FFF798FD22
:100E600000BF0837BD4680BD80B400AF72B600BF7A
:100E7000FEE7000080B485B000AF78603C4B1B7883
:100E8000002B02D07B68272B01D9FF236BE07B6806
:100E9000FB604DE0FB685A1C364913469B00134427
:100EA0009B000B4419683348FA6813469B001344AF
:100EB0009B0003441960FB685A1C2E4913469B0093
:100EC00013449B000B44043319682A48FA681346FC
:100ED0009B0013449B00034404331960FB685A1CB5
:100EE000244913469B0013449B000B4408331968A4
:100EF0002048FA6813469B0013449B0003440833C0
:100F00001960FB685A1C1B4913469B0013449B0045
:100F10000B440C3318781749FA6813469B001344A6
:100F20009B000B440C3302461A70FB680133FB60D4
:100F3000FB68262BAEDD0F4B0022C3F80C230D4BB4
:100F40000022C3F810230B4B0022C3F81423094BD3
:100F5000002283F81823064B1B78013BDAB2044BBE
:100F60001A707B68DBB218461437BD4680BC7047E8
:100F70007C000020C800002080B500AF02E0002007
:100F8000FFF778FF034B1B78002BF8D100BF00BFA1
:100F900080BD00BF7C00002080B485B000AFF86049
:100FA000B9607A60314B1B78272B58D82F4B1B78B0
:100FB00019462F4A0B469B000B449B001344FA68CA
:100FC0001A602C4B1B681A46284B1B781846BB68C6
:100FD000B3FBF2F2264903469B0003449B000B44FB
:100FE00004331A60234B1B681A46204B1B781846A3
:100FF0007B68B3FBF2F21E4903469B0003449B004F
:101000000B4408331A60194B1B781946184A0B46D3
:101010009B000B449B0013440C3300221A70134BAB
:101020001A78124B1B7819461046114A0B469B0042
:101030000B449B001344103318600C4B1B78013396
:10104000DAB20A4B1A70094B1B781946084A0B464C
:101050009B000B449B00134410331B6801E04FF0CE
:10106000FF3318461437BD4680BC70477C00002013
:10107000C8000020E803002080B483B000AF002344
:101080007B6048E02A497A6813469B0013449B0022
:101090000B4404331B68002B13D025497A68134690
:1010A0009B0013449B000B4404331B68591E2048CB
:1010B0007A6813469B0013449B0003440433196071
:1010C00026E01B497A6813469B0013449B000B449F
:1010D0000833196816487A6813469B0013449B002E
:1010E00003440433196012497A6813469B00134481
:1010F0009B000B440C331B780133D8B20C497A683F
:1011000013469B0013449B000B440C3302461A7099
:101110007B6801337B60074B1B781A467B689342E0
:10112000B0DB00BF00BF0C37BD4680BC704700BFBE
:10113000C80000207C00002080B582B000AF0023F2
:101140007B603DE024497A6813469B0013449B0072
:101150000B440C331B78002B2FD01F497A681346A1
:101160009B0013449B000B440C331B78013BD8B20B
:1011700019497A6813469B0013449B000B440C33B7
:1011800002461A7014497A6813469B0013449B0068
:101190000B441B68984710497A6813469B00134418
:1011A0009B000B4408331B68002B06D17B68184654
:1011B000FFF760FE7B68013B7B607B6801337B60EF
:1011C000064B1B781A467B689342BBDB00BF00BF0F
:1011D0000837BD4680BD00BFC80000207C0000204D
:1011E00080B485B000AF154B9B69144A43F00103EE
:1011F0009361124B9B6903F00103BB60BB680F4B0B
:10120000DB690E4A43F08053D3610C4BDB6903F07A
:1012100080537B607B680A4B5B68FB60FB6823F054
:10122000E063FB60FB6843F08063FB60044AFB689B
:10123000536000BF1437BD4680BC704700100240A9
:101240000000014080B584B000AF78607B681B6807
:10125000B3F1804F13D10C4BDB690B4A43F0010310
:10126000D361094BDB6903F00103FB60FB680022DB
:1012700000211C2000F0A1F91C2000F0BAF900BFE9
:101280001037BD4680BD00BF0010024080B400AFE3
:10129000FEE780B400AFFEE780B400AFFEE780B4A5
:1012A00000AFFEE780B400AFFEE780B400AF00BF40
:1012B000BD4680BC704780B400AF00BFBD4680BC57
:1012C000704780B400AF00BFBD4680BC704780B59A
:1012D00000AF00F07FF800BF80BD000080B500AF18
:1012E000024800F0E7FF00BF80BD00BF8000002083
:1012F00080B400AF00BFBD4680BC70470C480D49AC
:101300000D4A002302E0D458C4500433C4188C4260
:10131000F9D30A4A0A4C002301E013600432A242C6
:10132000FBD3FFF7E5FF01F00DFBFFF731FC704742
:10133000000000203C000020DC2900083C000020C8
:10134000F0030020FEE7000080B500AF084B1B68EB
:10135000074A43F010031360032000F023F90F2025
:1013600000F008F8FFF73CFF0023184680BD00BFDF
:101370000020024080B582B000AF7860124B1A683E
:10138000124B1B7819464FF47A73B3FBF1F3B2FB9F
:10139000F3F3184600F03BF90346002B01D001237C
:1013A0000EE07B680F2B0AD8002279684FF0FF30DF
:1013B00000F003F9064A7B681360002300E0012374
:1013C00018460837BD4680BD300000203800002098
:1013D0003400002080B400AF054B1B781A46054B43
:1013E0001B681344034A136000BFBD4680BC7047AE
:1013F00038000020EC03002080B400AF024B1B68D3
:101400001846BD4680BC7047EC03002080B485B010
:1014100000AF78607B6803F00703FB600C4BDB6870
:10142000BB60BA684FF6FF031340BB60FB681A024B
:10143000BB68134343F0BF6343F40033BB60044A0B
:10144000BB68D36000BF1437BD4680BC704700BF87
:1014500000ED00E080B400AF044BDB681B0A03F032
:1014600007031846BD4680BC704700BF00ED00E092
:1014700080B483B000AF0346FB7197F90730002BAF
:101480000BDBFB7903F01F02064997F907305B0974
:10149000012000FA02F241F8232000BF0C37BD46BC
:1014A00080BC704700E100E080B483B000AF034629
:1014B0003960FB7197F90730002B0ADB3B68DAB221
:1014C0000C4997F907301201D2B20B4483F800237C
:1014D0000AE03B68DAB20849FB7903F00F03043BEA
:1014E0001201D2B20B441A7600BF0C37BD4680BC45
:1014F000704700BF00E100E000ED00E080B489B07B
:1015000000AFF860B9607A60FB6803F00703FB6125
:10151000FB69C3F10703042B28BF0423BB61FB69EC
:101520000433062B02D9FB69033B00E000237B61F7
:101530004FF0FF32BB6902FA03F3DA43BB681A408B
:101540007B699A404FF0FF317B6901FA03F3D9437D
:101550007B680B40134318462437BD4680BC704758
:1015600080B582B000AF78607B68013BB3F1807FCB
:1015700001D301230FE00A4A7B68013B53600F212E
:101580004FF0FF30FFF790FF054B00229A60044BAD
:1015900007221A60002318460837BD4680BD00BFE9
:1015A00010E000E080B582B000AF78607868FFF7A7
:1015B0002DFF00BF0837BD4680BD80B586B000AFA7
:1015C0000346B9607A60FB7300237B61FFF742FF3B
:1015D00078617A68B9687869FFF790FF024697F9F1
:1015E0000F3011461846FFF75FFF00BF1837BD46A2
:1015F00080BD80B582B000AF0346FB7197F907301C
:101600001846FFF735FF00BF0837BD4680BD80B5DF
:1016100082B000AF78607868FFF7A2FF03461846F3
:101620000837BD4680BD000080B48BB000AF786045
:10163000396000237B6200233B6248E101227B6A20
:1016400002FA03F3FB613B681B68FA691340BB6154
:10165000BA69FB699A4240F037813B685B68A34AEC
:1016600093425ED0A14A934275D8A14A934258D082
:101670009F4A93426FD89F4A934252D09D4A9342C9
:1016800069D89D4A93424CD09B4A934263D89B4A67
:10169000934246D0994A93425DD8122B2AD8122BF6
:1016A00059D801A252F823F023170008FD160008AC
:1016B0000F170008511700085717000857170008A0
:1016C0005717000857170008571700085717000842
:1016D0005717000857170008571700085717000832
:1016E0005717000857170008571700080517000874
:1016F00019170008824A934213D02CE03B68DB683C
:101700003B6229E03B68DB6804333B6224E03B68D2
:10171000DB6808333B621FE03B68DB680C333B62ED
:101720001AE03B689B68002B02D104233B6213E064
:101730003B689B68012B05D108233B627B68FA69F3
:101740001A6109E008233B627B68FA695A6103E089
:1017500000233B6200E000BFBB69FF2B01D87B6820
:1017600001E07B6804337B61BB69FF2B02D87B6A95
:101770009B0002E07B6A083B9B003B617B691A6827
:101780000F213B6901FA03F3DB431A40396A3B69D5
:1017900001FA03F31A437B691A603B685B6803F044
:1017A0008053002B00F09080564B9B69554A43F0C4
:1017B00001039361534B9B6903F00103BB60BB685A
:1017C000514A7B6A9B08023352F82330FB607B6AE4
:1017D00003F003039B000F2202FA03F3DB43FA68D2
:1017E0001340FB607B68494A93420DD07B68484AAE
:1017F000934207D07B68474A934201D1022304E019
:10180000032302E0012300E000237A6A02F00302CE
:1018100092009340FA681343FB603B497B6A9B0844
:101820000233FA6841F823203B685B6803F4803395
:10183000002B06D0384B1A683749BB6913430B603D
:1018400006E0354B1A68BB69DB43334913400B6034
:101850003B685B6803F40033002B06D02E4B5A68BC
:101860002D49BB6913434B6006E02B4B5A68BB699B
:10187000DB43294913404B603B685B6803F48013EA
:10188000002B06D0244B9A682349BB6913438B6015
:1018900006E0214B9A68BB69DB431F4913408B600C
:1018A0003B685B6803F40013002B06D01A4BDA6820
:1018B0001949BB691343CB6006E0174BDA68BB6973
:1018C000DB4315491340CB607B6A01337B623B6885
:1018D0001A687B6A22FA03F3002B7FF4AFAE00BFD5
:1018E00000BF2C37BD4680BC704700BF00003210DF
:1018F0000000311000002210000021100000121022
:1019000000001110001002400000014000080140DA
:10191000000C0140001001400004014080B485B07B
:1019200000AF78600B467B807B689A687B881340A9
:10193000002B02D00123FB7301E00023FB73FB7B30
:1019400018461437BD4680BC704780B483B000AFE2
:1019500078600B467B8013467B707B78002B03D02E
:101960007A887B681A6103E07B881A047B681A61B5
:1019700000BF0C37BD4680BC704780B485B000AF57
:1019800078600B467B807B68DB68FB607A88FB684D
:1019900013401A04FB68D9437B880B401A437B68C9
:1019A0001A6100BF1437BD4680BC704780B586B051
:1019B00000AF78607B68002B01D101236CE27B686B
:1019C0001B6803F00103002B00F08780924B5B68DB
:1019D00003F00C03042B0CD08F4B5B6803F00C035B
:1019E000082B12D18C4B5B6803F48033B3F5803F36
:1019F0000BD1894B1B6803F40033002B6CD07B6840
:101A00005B68002B68D1012346E27B685B68B3F515
:101A1000803F06D1804B1B687F4A43F480331360BC
:101A20002EE07B685B68002B0CD17B4B1B687A4AED
:101A300023F480331360784B1B68774A23F48023A8
:101A400013601DE07B685B68B3F5A02F0CD1724B6F
:101A50001B68714A43F4802313606F4B1B686E4A06
:101A600043F4803313600BE06B4B1B686A4A23F42A
:101A700080331360684B1B68674A23F4802313602C
:101A80007B685B68002B13D0FFF7B6FC386108E079
:101A9000FFF7B2FC02463B69D31A642B01D903233A
:101AA000FAE15D4B1B6803F40033002BF0D014E027
:101AB000FFF7A2FC386108E0FFF79EFC02463B6995
:101AC000D31A642B01D90323E6E1534B1B6803F4BB
:101AD0000033002BF0D100E000BF7B681B6803F0EF
:101AE0000203002B63D04C4B5B6803F00C03002B0C
:101AF0000BD0494B5B6803F00C03082B1CD1464B01
:101B00005B6803F48033002B16D1434B1B6803F052
:101B10000203002B05D07B681B69012B01D0012338
:101B2000BAE13D4B1B6823F0F8027B685B69DB0080
:101B3000394913430B603AE07B681B69002B20D0C6
:101B4000364B01221A60FFF757FC386108E0FFF7B7
:101B500053FC02463B69D31A022B01D903239BE1B4
:101B60002D4B1B6803F00203002BF0D02A4B1B689F
:101B700023F0F8027B685B69DB00274913430B60A5
:101B800015E0264B00221A60FFF736FC386108E0AA
:101B9000FFF732FC02463B69D31A022B01D903231B
:101BA0007AE11D4B1B6803F00203002BF0D17B6828
:101BB0001B6803F00803002B3AD07B689B69002B5D
:101BC00019D0174B01221A60FFF716FC386108E0A4
:101BD000FFF712FC02463B69D31A022B01D90323FB
:101BE0005AE10D4B5B6A03F00203002BF0D0012099
:101BF00000F0A6FA1CE00A4B00221A60FFF7FCFB7B
:101C000038610FE0FFF7F8FB02463B69D31A022B5D
:101C100008D9032340E100BF001002400000424207
:101C2000800442429E4B5B6A03F00203002BE9D121
:101C30007B681B6803F00403002B00F0A6800023E0
:101C4000FB75974BDB6903F08053002B0DD1944B50
:101C5000DB69934A43F08053D361914BDB6903F016
:101C60008053BB60BB680123FB758E4B1B6803F47C
:101C70008073002B18D18B4B1B688A4A43F4807306
:101C80001360FFF7B9FB386108E0FFF7B5FB0246C8
:101C90003B69D31A642B01D90323FDE0814B1B68F8
:101CA00003F48073002BF0D07B68DB68012B06D136
:101CB0007B4B1B6A7A4A43F0010313622DE07B6879
:101CC000DB68002B0CD1764B1B6A754A23F00103AD
:101CD0001362734B1B6A724A23F0040313621CE005
:101CE0007B68DB68052B0CD16D4B1B6A6C4A43F09B
:101CF000040313626A4B1B6A694A43F001031362CF
:101D00000BE0674B1B6A664A23F001031362644BC6
:101D10001B6A634A23F0040313627B68DB68002BB1
:101D200015D0FFF769FB38610AE0FFF765FB024653
:101D30003B69D31A41F28832934201D90323ABE0C5
:101D4000574B1B6A03F00203002BEED014E0FFF7A1
:101D500053FB38610AE0FFF74FFB02463B69D31A99
:101D600041F28832934201D9032395E04C4B1B6A20
:101D700003F00203002BEED1FB7D012B05D1484B74
:101D8000DB69474A23F08053D3617B68DB69002B12
:101D900000F08180424B5B6803F00C03082B61D09C
:101DA0007B68DB69022B46D13F4B00221A60FFF7AC
:101DB00023FB386108E0FFF71FFB02463B69D31A9B
:101DC000022B01D9032367E0354B1B6803F0007336
:101DD000002BF0D17B681B6AB3F5803F08D1304BF4
:101DE0005B6823F400327B689B682D4913434B608A
:101DF0002B4B5B6823F474127B68196A7B685B6AFF
:101E00000B43274913434B60274B01221A60FFF70E
:101E1000F3FA386108E0FFF7EFFA02463B69D31A9C
:101E2000022B01D9032337E01D4B1B6803F000731D
:101E3000002BF0D02FE01C4B00221A60FFF7DCFAD9
:101E4000386108E0FFF7D8FA02463B69D31A022B43
:101E500001D9032320E0124B1B6803F00073002B11
:101E6000F0D118E07B68DB69012B01D1012313E07D
:101E70000B4B5B68FB60FB6803F480327B681B6A7A
:101E80009A4206D1FB6803F470127B685B6A9A423F
:101E900001D0012300E0002318461837BD4680BD5D
:101EA00000100240007000406000424280B584B0E3
:101EB00000AF786039607B68002B01D10123D0E04E
:101EC0006A4B1B6803F007033A689A4210D9674BC4
:101ED0001B6823F0070265493B6813430B60634BA3
:101EE0001B6803F007033A689A4201D00123B8E067
:101EF0007B681B6803F00203002B20D07B681B6803
:101F000003F00403002B05D0594B5B68584A43F497
:101F1000E06353607B681B6803F00803002B05D067
:101F2000534B5B68524A43F460535360504B5B68B9
:101F300023F0F0027B689B684D4913434B607B683C
:101F40001B6803F00103002B40D07B685B68012B0A
:101F500007D1474B1B6803F40033002B15D1012335
:101F60007FE07B685B68022B07D1414B1B6803F065
:101F70000073002B09D1012373E03D4B1B6803F074
:101F80000203002B01D101236BE0394B5B6823F086
:101F900003027B685B68364913434B60FFF72CFAFA
:101FA000F8600AE0FFF728FA0246FB68D31A41F20C
:101FB0008832934201D9032353E02D4B5B6803F031
:101FC0000C027B685B689B009A42EBD1274B1B6835
:101FD00003F007033A689A4210D2244B1B6823F09F
:101FE000070222493B6813430B60204B1B6803F038
:101FF00007033A689A4201D0012332E07B681B68EC
:1020000003F00403002B08D0194B5B6823F4E06253
:102010007B68DB68164913434B607B681B6803F0E1
:102020000803002B09D0124B5B6823F460527B68D5
:102030001B69DB000E4913434B6000F021F8024698
:102040000B4B5B681B0903F00F030A49CB5C22FAB8
:1020500003F3094A1360094B1B681846FFF78AF916
:10206000002318461037BD4680BD00BF0020024047
:1020700000100240C4290008300000203400002075
:1020800090B48AB000AF2A4B3C1D0FCB84E80F0000
:1020900040F201233B800023FB610023BB6100234E
:1020A0007B6200237B6100233B62224B5B68FB6108
:1020B000FB6903F00C03042B02D0082B03D02DE0A6
:1020C0001D4B3B622DE0FB699B0C03F00F0307F1F6
:1020D0002802134413F8243C7B61FB6903F480332A
:1020E000002B13D0134B5B685B0C03F0010307F16B
:1020F0002802134413F8283CBB617B690E4A02FB9B
:1021000003F2BB69B2FBF3F37B6204E07B690B4A29
:1021100002FB03F37B627B6A3B6202E0064B3B629D
:1021200000BF3B6A18462837BD4690BC704700BFC9
:10213000B42900080010024000127A0000093D0096
:1021400080B485B000AF78600A4B1B680A4AA2FBD6
:1021500003235B0A7A6802FB03F3FB6000BFFB68A2
:102160005A1EFA60002BF9D100BF00BF1437BD46DC
:1021700080BC704730000020D34D621080B582B023
:1021800000AF78607B68002B01D1012341E07B68C0
:1021900093F83D30DBB2002B06D17B68002283F838
:1021A0003C207868FFF74EF87B68022283F83D20D8
:1021B0007B681A687B6804331946104600F06AFA97
:1021C0007B68012283F846207B68012283F83E2049
:1021D0007B68012283F83F207B68012283F840203E
:1021E0007B68012283F841207B68012283F842202A
:1021F0007B68012283F843207B68012283F8442016
:102200007B68012283F845207B68012283F83D200A
:10221000002318460837BD4680BD000080B485B055
:1022200000AF78607B6893F83D30DBB2012B01D0C2
:10223000012335E07B68022283F83D207B681B6820
:10224000DA687B681B6842F00102DA607B681B6811
:10225000164A934209D07B681B68B3F1804F04D0C3
:102260007B681B68124A934211D17B681B689B688C
:1022700003F00703FB60FB68062B10D07B681B682C
:102280001A687B681B6842F001021A6007E07B68ED
:102290001B681A687B681B6842F001021A60002301
:1022A00018461437BD4680BC704700BF002C014063
:1022B0000004004080B582B000AF78607B681B6886
:1022C0001B6903F00203022B22D17B681B68DB68C9
:1022D00003F00203022B1BD17B681B686FF0020224
:1022E0001A617B6801221A777B681B689B6903F07F
:1022F0000303002B03D0786800F0B1F905E078689B
:1023000000F0A4F9786800F0B3F97B6800221A772E
:102310007B681B681B6903F00403042B22D17B68D4
:102320001B68DB6803F00403042B1BD17B681B686C
:102330006FF004021A617B6802221A777B681B68BF
:102340009B6903F44073002B03D0786800F087F991
:1023500005E0786800F07AF9786800F089F97B6820
:1023600000221A777B681B681B6903F00803082B9F
:1023700022D17B681B68DB6803F00803082B1BD1A4
:102380007B681B686FF008021A617B6804221A7769
:102390007B681B68DB6903F00303002B03D07868BC
:1023A00000F05DF905E0786800F050F9786800F019
:1023B0005FF97B6800221A777B681B681B6903F052
:1023C0001003102B22D17B681B68DB6803F010031D
:1023D000102B1BD17B681B686FF010021A617B68A1
:1023E00008221A777B681B68DB6903F44073002BB3
:1023F00003D0786800F033F905E0786800F026F93A
:10240000786800F035F97B6800221A777B681B68D2
:102410001B6903F00103012B0ED17B681B68DB688D
:1024200003F00103012B07D17B681B686FF00102E9
:102430001A617868FEF70CFD7B681B681B6903F066
:102440008003802B0ED17B681B68DB6803F0800360
:10245000802B07D17B681B686FF080021A61786857
:1024600000F067FA7B681B681B6903F04003402B90
:102470000ED17B681B68DB6803F04003402B07D15B
:102480007B681B686FF040021A61786800F0F9F809
:102490007B681B681B6903F02003202B0ED17B682F
:1024A0001B68DB6803F02003202B07D17B681B68C7
:1024B0006FF020021A61786800F032FA00BF083726
:1024C000BD4680BD80B584B000AF786039607B6860
:1024D00093F83C30012B01D10223B3E07B68012249
:1024E00083F83C207B68022283F83D207B681B68D0
:1024F0009B68FB60FB6823F07703FB60FB6823F4B9
:102500007F43FB607B681B68FA689A603B681B68C6
:10251000B3F5005F3ED0B3F5005F00F28780B3F5FE
:10252000805F00F08580B3F5805F7FD8702B1AD074
:10253000702B7BD8602B50D0602B77D8502B3CD0A1
:10254000502B73D8402B58D0402B6FD8302B64D0F1
:10255000302B6BD8202B60D0202B67D8002B5CD081
:10256000102B5AD062E07B6818683B6899683B681A
:102570005A683B68DB6800F05CF97B681B689B6805
:10258000FB60FB6843F07703FB607B681B68FA68BD
:102590009A604EE07B6818683B6899683B685A68A7
:1025A0003B68DB6800F045F97B681B689A687B68CC
:1025B0001B6842F480429A603BE07B6818683B6885
:1025C00059683B68DB681A4600F0BCF87B681B68FA
:1025D0005021184600F013F92BE07B6818683B681F
:1025E00059683B68DB681A4600F0DAF87B681B68BC
:1025F0006021184600F003F91BE07B6818683B680F
:1026000059683B68DB681A4600F09CF87B681B68D9
:102610004021184600F0F3F80BE07B681A683B682D
:102620001B681946104600F0EAF802E000BF00E01F
:1026300000BF7B68012283F83D207B68002283F87D
:102640003C20002318461037BD4680BD80B483B0BF
:1026500000AF786000BF0C37BD4680BC704780B4C7
:1026600083B000AF786000BF0C37BD4680BC7047B8
:1026700080B483B000AF786000BF0C37BD4680BC2B
:10268000704780B483B000AF786000BF0C37BD46A0
:1026900080BC704780B485B000AF786039607B68DB
:1026A0001B68FB607B68254A934207D07B68B3F1C7
:1026B000804F03D07B68224A934208D1FB6823F005
:1026C0007003FB603B685B68FA681343FB607B68E0
:1026D0001A4A934207D07B68B3F1804F03D07B68DE
:1026E000174A934208D1FB6823F44073FB603B68B0
:1026F000DB68FA681343FB60FB6823F080023B68E9
:102700005B691343FB607B68FA681A603B689A68F0
:102710007B68DA623B681A687B689A627B68074A62
:10272000934203D13B681A697B681A637B68012274
:102730005A6100BF1437BD4680BC7047002C014071
:102740000004004080B487B000AFF860B9607A60E0
:10275000FB681B6A7B61FB681B6A23F00102FB6854
:102760001A62FB689B693B613B6923F0F0033B61A4
:102770007B681B013A6913433B617B6923F00A03C1
:102780007B617A69BB6813437B61FB683A699A6134
:10279000FB687A691A6200BF1C37BD4680BC70476F
:1027A00080B487B000AFF860B9607A60FB681B6ADC
:1027B00023F01002FB681A62FB689B697B61FB686F
:1027C0001B6A3B617B6923F470437B617B681B035D
:1027D0007A6913437B613B6923F0A0033B61BB68CB
:1027E0001B013A6913433B61FB687A699A61FB6894
:1027F0003A691A6200BF1C37BD4680BC704780B47E
:1028000085B000AF786039607B689B68FB60FB68CF
:1028100023F07003FB603A68FB68134343F007033F
:10282000FB607B68FA689A6000BF1437BD4680BCC5
:10283000704780B487B000AFF860B9607A603B60E1
:10284000FB689B687B617B6923F47F437B613B680A
:102850001A027B681A43BB6813437A6913437B618E
:10286000FB687A699A6000BF1C37BD4680BC704720
:1028700080B485B000AF786039607B6893F83C30F5
:10288000012B01D1022341E07B68012283F83C2027
:102890007B68022283F83D207B681B685B68FB60D5
:1028A0007B681B689B68BB60FB6823F07003FB6060
:1028B0003B681B68FA681343FB607B681B68FA6817
:1028C0005A607B681B68144A934209D07B681B6876
:1028D000B3F1804F04D07B681B68104A93420CD13F
:1028E000BB6823F08003BB603B685B68BA68134336
:1028F000BB607B681B68BA689A607B68012283F8BA
:102900003D207B68002283F83C20002318461437C2
:10291000BD4680BC704700BF002C01400004004051
:1029200080B483B000AF786000BF0C37BD4680BC78
:10293000704780B483B000AF786000BF0C37BD46ED
:1029400080BC704770B500260C4D0D4C641BA41064
:10295000A64209D100F022F800260A4D0A4C641B59
:10296000A410A64205D170BD55F8043B9847013626
:10297000EEE755F8043B98470136F2E7D429000802
:10298000D4290008D4290008D829000803460244A5
:10299000934200D1704703F8011BF9E7F8B500BF77
:1029A000F8BC08BC9E467047F8B500BFF8BC08BC30
:0429B0009E46704788
:1029B40002030405060708090A0B0C0D0E0F10107C
:1029C40000000000000000000102030406070809DB
:0429D40035010008C1
:0429D80011010008E1
:1029DC0001000000000000000000000001000000E9
:1029EC0000000000000000000100000000000000DA
:1029FC0000000000010000000000000000000000CA
:0C2A0C000024F400100000000100000095
:04000005080012FDE0
:00000001FF
